:020000040800F2
:100000000050002039030008890300088903000814
:100010008903000889030008890300080000000024
:10002000000000000000000000000000890300083C
:10003000890300080000000089030008BD020008D1
:100040008903000889030008890300088903000860
:100050008903000889030008890300088903000850
:100060008903000889030008890300088903000840
:100070008903000889030008890300088903000830
:100080008903000889030008890300088903000820
:100090008903000889030008890300088903000810
:1000A0008903000889030008890300088903000800
:1000B00089030008890300088903000889030008F0
:1000C00089030008890300088903000889030008E0
:1000D00089030008890300088903000889030008D0
:1000E0008903000889030008000000008903000854
:1000F00089030008890300088903000889030008B0
:10010000890300088903000889030008890300089F
:10011000890300088903000889030008890300088F
:10012000890300088903000889030008890300087F
:1001300010B5054C237833B9044B13B10448AFF321
:1001400000800123237010BD040000200000000087
:10015000C404000808B5034B1BB103490348AFF3BF
:10016000008008BD0000000008000020C404000852
:1001700080B400AF394B1B68384A43F480331360B6
:1001800000BF364B1B6803F40033002BF9D0344B0F
:100190001B6823F00703324A43F002031360304B1D
:1001A0001B682F4A43F0100313602C4B5B6823F449
:1001B00040432A4A43F400435360284B5B68274A74
:1001C00023F460535360254B5B6823F4E063234AB8
:1001D00043F480635360214B5B68204A23F0700333
:1001E00053601E4B5B681D4A23F4003353601B4B66
:1001F0005B681A4A43F480335360184B5B6823F4FE
:100200007013164A43F4E0135360144B1B68134AEF
:1002100043F08073136000BF104B1B6803F0007342
:10022000002BF9D00D4B5B6823F003030B4A43F01E
:100230000203536000BF094B5B689B0803F0030394
:10024000022BF8D1054B9B69044A43F4016343F048
:100250000403936100BFBD4680BC7047001002409C
:100260000020024080B400AF084B5B6823F47003A9
:10027000064A43F440135360044BDB68034A23F4FB
:100280000053D36000BFBD4680BC704700100140E2
:1002900080B400AF074B084A5A60064B00229A60B0
:1002A000044B1B68034A43F00703136000BFBD46BD
:1002B00080BC704710E000E03F19010080B400AF3F
:1002C000044B1B680133034A136000BFBD4680BC6A
:1002D000704700BF2000002080B485B000AF786078
:1002E000084B1B68FB6000BF064B1A68FB68D31AFB
:1002F0007A689A42F8D800BF00BF1437BD4680BC68
:10030000704700BF2000002080B500AFFFF730FF2E
:10031000FFF7A8FFFFF7BCFF00F03EF8054BDB68D6
:10032000044A83F40053D3604FF47A70FFF7D4FF8C
:1003300000BFF3E7001001400D48854600F025F8A6
:100340000C480D490D4A002302E0D458C450043330
:10035000C4188C42F9D30A4A0A4C002301E0136006
:100360000432A242FBD300F089F8FFF7CDFFFEE78D
:10037000005000200000002004000020F4040008C9
:100380000400002024000020FEE780B400AF00BF7E
:10039000BD4680BC7047000080B485B000AF00232C
:1003A000FB600023BB6000237B602F4B5B6803F086
:1003B0000C03FB60FB68082B11D0FB68082B3AD8B4
:1003C000FB68002B03D0FB68042B04D033E0274BE1
:1003D000274A1A6033E0254B254A1A602FE0224B4A
:1003E0005B6803F47013BB601F4B5B6803F48033DE
:1003F0007B60BB689B0C0233BB607B68002B06D123
:10040000BB681C4A02FB03F3184A136017E0164B43
:100410005B6803F40033002B06D0BB68154A02FB6F
:1004200003F3124A13600AE0BB68114A02FB03F3AC
:100430000E4A136003E00D4B0D4A1A6000BF0A4BD1
:100440005B681B0903F00F030B4AD35CFB60074B8F
:100450001A68FB6822FA03F3044A136000BF1437DA
:10046000BD4680BC704700BF001002400000002065
:1004700000127A0000093D00DC04000870B5002677
:100480000C4D0D4C641BA410A64209D100F01AF8C3
:1004900000260A4D0A4C641BA410A64205D170BD6B
:1004A00055F8043B98470136EEE755F8043B98476A
:1004B0000136F2E7EC040008EC040008EC04000844
:1004C000F0040008F8B500BFF8BC08BC9E467047B1
:0C04D000F8B500BFF8BC08BC9E467047A1
:1004DC0000000000000000000102030406070809E8
:0404EC0055010008AE
:0404F00031010008CE
:0404F40000127A0078
:0400000508000339B3
:00000001FF
