:020000040800F2
:1000000000500020810C0008D10C0008D10C000821
:10001000D10C0008D10C0008D10C00080000000031
:10002000000000000000000000000000D10C0008EB
:10003000D10C000800000000D10C0008C108000825
:10004000D10C0008D10C0008D10C0008D10C00081C
:10005000D10C0008D10C0008D10C0008D10C00080C
:10006000D10C0008D10C0008D10C0008D10C0008FC
:10007000D10C0008D10C0008D10C0008D10C0008EC
:10008000D10C0008D10C0008D10C0008D10C0008DC
:10009000D10C0008D10C0008D10C0008D10C0008CC
:1000A000D10C0008D10C0008D10C0008D10C0008BC
:1000B000D10C0008D10C0008D10C0008D10C0008AC
:1000C000D10C0008D10C0008D10C0008D10C00089C
:1000D000D10C0008D10C0008D10C0008D10C00088C
:1000E000D10C0008D10C000800000000D10C000861
:1000F000D10C0008D10C0008D10C0008D10C00086C
:10010000D10C0008D10C0008D10C0008D10C00085B
:10011000D10C0008D10C0008D10C0008D10C00084B
:10012000D10C0008D10C0008D10C0008D10C00083B
:1001300010B5054C237833B9044B13B10448AFF321
:1001400000800123237010BD180000200000000073
:100150001C0D000808B5034B1BB103490348AFF35E
:10016000008008BD000000001C0000201C0D0008DD
:1001700080F0004002E000BF81F0004142001FBF5C
:100180005FEA410392EA030F7FEA226C7FEA236C65
:100190006AD04FEA1262D2EB1363C1BFD21841405A
:1001A00048404140B8BF5B42192B88BF704710F0F0
:1001B000004F40F4000020F07F4018BF404211F093
:1001C000004F41F4000121F07F4118BF494292EAFB
:1001D000030F3FD0A2F1010241FA03FC10EB0C0027
:1001E000C3F1200301FA03F100F0004302D54942B4
:1001F00060EB4000B0F5000F13D3B0F1807F06D361
:1002000040084FEA310102F10102FE2A51D2B1F158
:10021000004F40EBC25008BF20F0010040EA03004D
:100220007047490040EB0000013A28BFB0F5000FCD
:10023000EDD2B0FA80FCACF1080CB2EB0C0200FA83
:100240000CF0AABF00EBC25052421843BCBFD040D2
:100250001843704792F0000F81F4000106BF80F44C
:1002600000000132013BB5E74FEA41037FEA226C0F
:1002700018BF7FEA236C21D092EA030F04D092F0DA
:10028000000F08BF0846704790EA010F1CBF00200E
:10029000704712F07F4F04D1400028BF40F000406B
:1002A000704712F100723CBF00F50000704700F08B
:1002B000004343F0FE4040F4000070477FEA2262B2
:1002C00016BF08467FEA23630146420206BF5FEA83
:1002D000412390EA010F40F4800070474FF0000383
:1002E00004E000BF10F0004348BF40425FEA000C4A
:1002F00008BF704743F0964301464FF000001CE0F2
:1003000050EA010208BF70474FF000030AE000BF47
:1003100050EA010208BF704711F0004302D5404285
:1003200061EB41015FEA010C02BF844601460020F7
:1003300043F0B64308BFA3F18053A3F50003BCFA12
:100340008CF2083AA3EBC25310DB01FA02FC6344BF
:1003500000FA02FCC2F12002BCF1004F20FA02F2C6
:1003600043EB020008BF20F00100704702F12002B9
:1003700001FA02FCC2F1200250EA4C0021FA02F21A
:1003800043EB020008BF20EADC7070474FF0FF0C1F
:100390001CEAD0521EBF1CEAD15392EA0C0F93EA1A
:1003A0000C0F6FD01A4480EA010C400218BF5FEABC
:1003B00041211ED04FF0006343EA501043EA51112F
:1003C000A0FB01310CF00040B1F5000F3EBF490029
:1003D00041EAD3715B0040EA010062F17F02FD2A2D
:1003E0001DD8B3F1004F40EBC25008BF20F0010010
:1003F000704790F0000F0CF0004C08BF49024CEA27
:10040000502040EA51207F3AC2BFD2F1FF0340EAB8
:10041000C250704740F400004FF00003013A5DDC29
:1004200012F1190FDCBF00F000407047C2F100026A
:10043000410021FA02F1C2F1200200FA02FC5FEA57
:10044000310040F1000053EA4C0308BF20EADC70A1
:10045000704792F0000F00F0004C02BF400010F413
:10046000000F013AF9D040EA0C0093F0000F01F0C0
:10047000004C02BF490011F4000F013BF9D041EAE2
:100480000C018FE70CEAD15392EA0C0F18BF93EAE4
:100490000C0F0AD030F0004C18BF31F0004CD8D10E
:1004A00080EA010000F00040704790F0000F17BF95
:1004B00090F0004F084691F0000F91F0004F14D0DB
:1004C00092EA0C0F01D142020FD193EA0C0F03D133
:1004D0004B0218BF084608D180EA010000F0004036
:1004E00040F0FE4040F40000704740F0FE4040F411
:1004F000400070474FF0FF0C1CEAD0521EBF1CEAB0
:10050000D15392EA0C0F93EA0C0F69D0A2EB0302CD
:1005100080EA010C49024FEA402037D04FF0805367
:1005200043EA111143EA10130CF000408B4238BF2C
:100530005B0042F17D024FF4000C8B4224BF5B1A3A
:1005400040EA0C00B3EB510F24BFA3EB510340EA88
:100550005C00B3EB910F24BFA3EB910340EA9C0036
:10056000B3EBD10F24BFA3EBD10340EADC001B01A6
:1005700018BF5FEA1C1CE0D1FD2A3FF650AF8B424A
:1005800040EBC25008BF20F0010070470CF0004C57
:100590004CEA50207F32C2BFD2F1FF0340EAC25082
:1005A000704740F400004FF00003013A37E792F043
:1005B000000F00F0004C02BF400010F4000F013AA1
:1005C000F9D040EA0C0093F0000F01F0004C02BF9C
:1005D000490011F4000F013BF9D041EA0C0195E705
:1005E0000CEAD15392EA0C0F08D142027FF47DAF9E
:1005F00093EA0C0F7FF470AF084676E793EA0C0F8E
:1006000004D14B023FF44CAF08466EE730F0004C8B
:1006100018BF31F0004CCAD130F000427FF45CAF1B
:1006200031F000437FF43CAF5FE700BF4FF0FF3C89
:1006300006E000BF4FF0010C02E000BF4FF0010CDC
:100640004DF804CD4FEA40024FEA41037FEA226CA5
:1006500018BF7FEA236C11D001B052EA530C18BFC7
:1006600090EA010F58BFB2EB030088BFC81738BF2C
:100670006FEAE17018BF40F0010070477FEA226C1A
:1006800002D15FEA402C05D17FEA236CE4D15FEA16
:10069000412CE1D05DF8040B704700BF844608464A
:1006A0006146FFE70FB5FFF7C9FF002848BF10F10B
:1006B000000F0FBD4DF808EDFFF7F4FF0CBF012050
:1006C00000205DF808FB00BF4DF808EDFFF7EAFFDA
:1006D00034BF012000205DF808FB00BF4DF808ED95
:1006E000FFF7E0FF94BF012000205DF808FB00BF8A
:1006F0004DF808EDFFF7D2FF94BF012000205DF810
:1007000008FB00BF4DF808EDFFF7C8FF34BF01201C
:1007100000205DF808FB00BF42000ED2B2F1FE4F90
:100720000BD34FF09E03B3EB126209D44FEA0023C0
:1007300043F0004323FA02F070474FF00000704787
:1007400012F1610F01D1420202D14FF0FF30704728
:100750004FF00000704700BF80B400AF3B4B1B68F8
:100760003A4A43F48033136000BF384B1B6803F4EC
:100770000033002BF9D0364B1B6823F00703344AB3
:1007800043F002031360324B1B68314A43F01003FD
:1007900013602E4B5B6823F440432C4A43F4004320
:1007A00053602A4B5B68294A23F460535360274BFC
:1007B0005B6823F4E063254A43F480635360234B72
:1007C0005B68224A23F070035360204B5B681F4A2A
:1007D00023F4003353601D4B5B681C4A43F48033A1
:1007E00053601A4B5B6823F47013184A43F4E01308
:1007F0005360164B1B68154A43F08073136000BFAB
:10080000124B1B6803F00073002BF9D00F4B5B6891
:1008100023F003030D4A43F00203536000BF0B4B68
:100820005B689B0803F00303022BF8D1074B9B691D
:10083000064A43F014039361044BDB69034A43F017
:100840000103D36100BFBD4680BC70470010024069
:100850000020024080B400AF0C4B5B6823F47003AF
:100860000A4A43F440135360084BDB68074A23F4F9
:100870000053D360064B1B6823F00F03044A43F078
:100880000B03136000BFBD4680BC704700100140E1
:100890000008014080B400AF074B084A5A60064B7D
:1008A00000229A60044B1B68034A43F0070313605D
:1008B00000BFBD4680BC704710E000E03F1901005A
:1008C00080B400AF044B1B680133034A136000BFC0
:1008D000BD4680BC704700BF3400002080B400AF2C
:1008E0004FF0804347229A624FF0804344F61F62E4
:1008F000DA624FF080434FF4FA725A634FF080434C
:100900009B694FF0804223F0FF0393614FF08043D7
:100910009B694FF0804243F0600393614FF0804346
:100920009B694FF0804243F0080393614FF080438E
:100930001B6A4FF0804243F0010313624FF0804383
:100940001B684FF0804243F0800313604FF08043F8
:100950001B684FF0804243F0010313604FF0804367
:100960005B694FF0804243F00103536100BFBD4615
:1009700080BC704780B485B000AF0346FB80FB8825
:10098000B42B01D9B423FB80FB884FF4FA6202FB3D
:1009900003F39B08084AA2FB03239B089BB203F5C1
:1009A000FA73FB814FF08042FB89536300BF143719
:1009B000BD4680BC704700BF176CC11680B584B0BF
:1009C00000AF786039604FF080435B6BFB81FB893F
:1009D000A3F5FA731846FFF785FC03461849184635
:1009E000FFF7D4FC034617491846FFF783FD03467B
:1009F0001A46154B1A6012497868FFF783FE0346C2
:100A0000002B01D00E4B7B604FF000017868FFF7A0
:100A10005BFE0346002B02D04FF000037B600A4AC6
:100A20007B685360094B1B68074A9360064A3B6822
:100A3000D360054B01221A7400BF1037BD4680BD3C
:100A4000000034430000FA4400000020340000207D
:100A500090B585B000AF334B1B7C002B5ED0324B82
:100A60001A68304B9B68D31AFB602E4BDB68FA6820
:100A70009A4224D32B4B5B681846FFF74DFE034682
:100A80009BB21846FFF776FF264B00221A74254BBF
:100A90005B6826491846FFF72BFE0346002B07D05C
:100AA000204BDB6819464FF00000FFF787FF36E068
:100AB0001C4BDB6819461D48FFF780FF2FE0F868E4
:100AC000FFF70CFC0446174BDB681846FFF706FCE3
:100AD000034619462046FFF70DFD0346BB60114B48
:100AE0001C68104B5B680F4A126811461846FFF7E6
:100AF00043FB0346B9681846FFF748FC034619460E
:100B00002046FFF73BFB03467B607868FFF704FE57
:100B100003469BB21846FFF72DFF00E000BF1437D5
:100B2000BD4690BD0000002034000020000034438A
:100B300080B582B000AFFFF70FFEFFF78BFEFFF727
:100B4000A9FEFFF7CBFE00F029F84FF4FA610D483B
:100B5000FFF734FF00237B604FF4FA733B60FFF72D
:100B600077FF094B1A687B68D31A3A689A42F6D81D
:100B7000054B1B687B60054BDB68044A83F400531C
:100B8000D360ECE700003443340000200010014043
:100B900080B400AF00BFBD4680BC704780B485B054
:100BA00000AF0023FB600023BB6000237B602F4B62
:100BB0005B6803F00C03FB60FB68082B11D0FB683B
:100BC000082B3AD8FB68002B03D0FB68042B04D019
:100BD00033E0274B274A1A6033E0254B254A1A6039
:100BE0002FE0224B5B6803F47013BB601F4B5B6804
:100BF00003F480337B60BB689B0C0233BB607B6873
:100C0000002B06D1BB681C4A02FB03F3184A136091
:100C100017E0164B5B6803F40033002B06D0BB686B
:100C2000154A02FB03F3124A13600AE0BB68114A3B
:100C300002FB03F30E4A136003E00D4B0D4A1A60EA
:100C400000BF0A4B5B681B0903F00F030B4AD35C20
:100C5000FB60074B1A68FB6822FA03F3044A13602F
:100C600000BF1437BD4680BC704700BF0010024073
:100C70001400002000127A0000093D00340D000825
:100C80000D488546FFF784FF0C480D490D4A0023A7
:100C900002E0D458C4500433C4188C42F9D30A4A31
:100CA0000A4C002301E013600432A242FBD300F09F
:100CB00011F8FFF73DFFFEE7005000200000002084
:100CC000180000204C0D00081800002038000020FB
:100CD000FEE7000070B500260C4D0D4C641BA410FF
:100CE000A64209D100F01AF800260A4D0A4C641BEE
:100CF000A410A64205D170BD55F8043B98470136B3
:100D0000EEE755F8043B98470136F2E7440D00083A
:100D1000440D0008440D0008480D0008F8B500BF58
:100D2000F8BC08BC9E467047F8B500BFF8BC08BCCC
:040D30009E46704724
:100D34000000000000000000010203040607080987
:040D4400550100084D
:040D4800310100086D
:100D4C00000000000000344300000000D007000049
:080D5C000000000000127A0003
:0400000508000C8162
:00000001FF
